:020000042001D9
:100000009711FF5F9381012B970200009382820179
:100010007390523093021000638402007350107C7E
:100020009702000093824211739052301301000036
:1000300063140100138101CF732540F18142130342
:100040000040137101FF6385A2001A918502D5BF9C
:10005000970000009380C00763830000829073259F
:1000600040F181450146ED209300000063830000CC
:100070008290970200009382C20073905230032353
:100080000000F5BF000000008280A14673B3063077
:10009000914263C555001376350011CA230005004F
:1000A0000505FD15E347B0FE731003308280232061
:1000B00005001105F115E34EB0FC7310033082808A
:1000C000232003001103E34D73FE82800684970210
:1000D000FFDF938222F3638C02049702FFDF938297
:1000E00062F2F32740F1A14673B006300A8397030A
:1000F000FFDF938323318A9363037300D1376398BF
:1001000057021703FF5F1303E3EF9713FF5F938318
:10011000639D630373006D371703FFE7130383EEDB
:100120009703FFE7938303EE63037300513FA280BD
:1001300082800000F322203473231034F323303400
:10014000D5BF411122C6000801003244410182801E
:1001500006849711FF5F9381E115930200006311FC
:10016000550E977200009382E2791703FF5F130325
:1001700063E99713FF5F9383E396638C6200635A8E
:10018000730003A5020091022320A3001103E34A98
:1001900073FE97120000938262241703FFE7130394
:1001A00063E69703FFE79383E3E5638C6200635A9A
:1001B000730003A5020091022320A3001103E34A68
:1001C00073FE0F1000009712000093822221170384
:1001D000FF5F130323E39703FF5F9383A3E2638C23
:1001E0006200635A730003A5020091022320A3005A
:1001F0001103E34A73FE0F1000001713FF5F130390
:10020000638E9383818E6357730023200300110351
:10021000E34D73FE1712FF5F1302C28C11C20296E8
:100220001775000013054526EF700022EF70E028D7
:10023000177500001305E567EF700021EF70C065CA
:100240000937FD5673B0463073B04634F32710308B
:10025000372704007D8F09C773B0363073B026305E
:10026000370704007D8F19C373B006184167130761
:100270008702F98F89CBF32700300967D98F7390F4
:10028000073073503000F327103037072000F98F04
:1002900099C7F327003093E707207390073005458F
:1002A000971500009385C50F171600001306860FDB
:1002B0003120EF70A01AA28082808280411106C294
:1002C000F32240F1130300006385620073005010B5
:0C02D000F5BFEF10802E924041018280AB
:0C02E000EC020120180301204203012061
:1002EC00011106CE22CC0010EF50C0032326A4FE31
:1002FC008327C4FE99C7B7170080138507AAEF5050
:10030C00200B0100F240624405618280011106CE8F
:10031C0022CC0010EF5000012326A4FE8325C4FE3E
:10032C00B7170080138507AAEF60D0360100F240A2
:10033C00624405618280411106C622C40008F1673F
:10034C0093850720B7170080138587A4EF60F052C0
:0A035C000100B240224441018280FA
:100368002020202020202020202020202020202085
:1003780020205349464956452C20494E432E00001B
:1003880020202020202020202020203535353535FC
:100398003535353535353535353535353535353505
:1003A8003535353500000000202020202020202071
:1003B80020203535353520202020202020202020E1
:1003C8002020202020202020203535353500000031
:1003D80020202020202020202035353535202020C1
:1003E8002020202020202020202020202020202005
:1003F80020203535353500002020202020202020E1
:100408003535353520202020202020202020202090
:1004180020202020202020202020203535353500A0
:100428002020202020202035353535202020202070
:10043800202035353535353535353535353535358E
:10044800353535353535353500000000202020207C
:100458002020353535352020202020202035353501
:100468003535353535353535353535353535353534
:10047800353535353500000020202020203535352C
:10048800352020202020202020202020202020204F
:10049800202020202020202020202020202035352A
:1004A8003535000020202020353535352020202006
:1004B8002020202020202020202020202020202034
:1004C80020202020202020202020203535353500F0
:1004D80020202035353535202020202020202020C0
:1004E8002020202020202020202020202020202004
:1004F8002020202020202020353535350000000020
:1005080020203535353535353535353535353535BD
:1005180035353535353535353535353535352020AD
:1005280020202020202020203535353535000000BA
:10053800202020353535353520202020202020204A
:1005480020202035353535353535353520202020E6
:1005580020202020202020353535353500000000AA
:10056800202020202035353535352020202020201A
:10057800202020202035353535352020202020200A
:10058800202020202035353535350000202020203A
:1005980020202035353535352020202020202020EA
:1005A8002020203520202020202020202020203519
:1005B800353535350000000020202020202020205F
:1005C80020353535353520202020202020202020BA
:1005D80020202020202020202035353535350000EA
:1005E800202020202020202020202035353535359A
:1005F80020202020202020202020202020202035DE
:10060800353535350000000020202020202020200E
:100618002020202020353535353520202020202069
:100628002020202020353535353500002020202099
:100638002020202020202020202020353535353549
:1006480020202020202020353535353500000000B9
:100658002020202020202020202020202020202092
:1006680020353535353520202035353535350000F0
:100678002020202020202020202020202020202072
:100688002020203535353535353535350000000025
:100698002020202020202020202020202020202052
:1006A8002020202020353535353500002020202019
:1006B8002020202020202020202020202020202032
:1006C800202020350000000020202020202020208D
:1006D8002020202020202057656C636F6D652074D2
:1006E8006F20417468656E6120426F6172642100F9
:1006F800726564004C443000677265656E000000E6
:10070800626C7565000000004174206C656173744B
:10071800206F6E65206F66204C45447320697320F6
:100728006E756C6C2E000000435055206E756C6C15
:100738002E00000043505520696E74657272757002
:100748007420636F6E74726F6C6C657220697320AD
:100758006E756C6C2E00000054494D455220696E30
:100768007465727275707420636F6E74726F6C6CDE
:10077800657220697320206E756C6C2E0000000075
:1007880054494D455220696E7465727275707420B3
:1007980068616E646C6572207265676973747261F2
:1007A80074696F6E206661696C65640043505520FA
:1007B800696E7465727275707420656E61626C65BD
:1007C800206661696C65640000000000000000009C
:1007D8000000000000000000000000000000000011
:1007E8000000000000000000000000000000000001
:1007F80000000000000000000000000000000000F1
:1008080000000000000000000000000000000000E0
:1008180000000000000000000000000000000000D0
:100828000000000000000000C42801206A2A0120FE
:100838004E2A012000000000000000006C2D01205D
:10084800A02D01204C290120262A0120C22A01209E
:10085800742B0120000000000000000000000000D0
:100868000000000000000000000000000000000080
:10087800000000002C2C0120FC27012000000000B3
:100888000000000000000000000000007E3F012082
:10089800E43F0120E43F0120903F0120E43F012094
:1008A800E43F0120E43F0120A23F0120E43F012072
:1008B800E43F0120E43F0120B43F0120E43F012050
:1008C800E43F0120E43F0120E43F0120C63F01202E
:1008D800C63F0120C63F0120C63F0120C63F012078
:1008E800C63F0120C63F0120C63F0120C63F012068
:1008F800C63F0120C63F0120C63F0120C63F012058
:10090800C63F0120C63F0120C63F012046400120C6
:100918008043012064430120000000000000000023
:1009280000000000000000002A4101200000000033
:100938000C430120384301200000000000000000A3
:10094800000000000000000000000000000000009F
:100958000000000000000000D44301200000000057
:10096800000000000000000000000000000000007F
:10097800F043012060440120A64401200C450120D9
:10098800824501209C450120B0450120CA4501202F
:10099800DE45012040460120A246012002470120F1
:1009A800224701206847012096470120B4470120CB
:1009B800D4470120D84B01200000000000000000AF
:1009C800000000000000000000000000000000001F
:1009D800324D012000000000F44D0120444E01205A
:1009E8000000000000000000C44E0120944E0120C9
:1009F8003C4A0120DA490120000000000000000004
:100A08000000000000000000EC4E0120884F01208B
:100A1800245001209850012001000000200000000F
:100A2800001BB70000366E01010000001F00000027
:100A3800030000003F00000001000000200000004B
:100A480000366E01006CDC02030000001F0000008D
:100A5800020000003F00000001000000100000003C
:100A6800808D5B00001BB700000000001F00000025
:100A7800030000003F00000001000000100000001B
:100A8800001BB70000366E01010000001F000000C7
:100A9800020000003F0000000100000010000000FC
:100AA80000366E01006CDC02030000001F0000002D
:100AB800020000001F000000010000000800000004
:100AC800808D5B00001BB700000000001F000000C5
:100AD800030000001F0000000100000008000000E3
:100AE800001BB70000366E01010000001F00000067
:100AF800020000001F0000000100000008000000C4
:100B080000366E01006CDC02030000001F000000CC
:100B1800020000000F0000000100000004000000B7
:100B2800808D5B00001BB700000000001F00000064
:100B3800030000000F000000010000000400000096
:100B4800001BB70000366E01010000001F00000006
:100B5800020000000F000000010000000400000077
:100B680000366E01006CDC02030000001F0000006C
:100B78000200000007000000010000000200000061
:100B8800808D5B00001BB700000000001F00000004
:100B9800020000000F000000010000000200000039
:100BA800001BB70000366E01010000001F000000A6
:100BB800010000000F00000001000000020000001A
:100BC80000366E01006CDC02030000001F0000000C
:100BD8000100000007000000020000000100000002
:100BE800808D5B00001BB700000000001F000000A4
:100BF80001000000070000000200000001000000E2
:100C0800001BB70000366E01010000001F00000045
:100C180001000000030000000200000001000000C5
:100C280000366E01006CDC02030000001F000000AB
:100C380003000000FFFFFFFF0400000001000000A8
:100C4800808D5B00001BB700000000001F00000043
:100C58000300000000000000040000000100000084
:100C6800001BB70000366E01010000001F000000E5
:100C780003000000FFFFFFFF040000000100000068
:100C880000366E01006CDC02030000001F0000004B
:100C980002000000FFFFFFFF060000000100000047
:100CA800808D5B00AAC2A2000000000023000000A3
:100CB8000100000002000000060000000100000022
:100CC800AAC2A200001BB700000000001700000025
:100CD80003000000FFFFFFFF060000000100000006
:100CE800001BB7000024F400010000002F000000E2
:100CF80003000000FFFFFFFF0600000001000000E6
:100D08000024F40080A81201010000001700000070
:100D180002000000FFFFFFFF0600000001000000C6
:100D280080A812015585450102000000230000003B
:100D380002000000FFFFFFFF0800000001000000A4
:100D4800808D5B00001BB700000000001F00000042
:100D580003000000FFFFFFFF080000000100000083
:100D6800001BB70000366E01010000001F000000E4
:100D780002000000FFFFFFFF080000000100000064
:100D880000366E01006CDC02030000001F0000004A
:100D980001000000FFFFFFFF0A0000000100000043
:100DA800808D5B00007C920000000000270000009E
:100DB80003000000FFFFFFFF0A0000000100000021
:100DC800007C9200001BB700000000001300000028
:100DD80002000000FFFFFFFF0A0000000100000002
:100DE800001BB70000F824010100000027000000E4
:100DF80002000000FFFFFFFF0A00000001000000E2
:100E080000F8240100366E01010000001300000004
:100E180001000000FFFFFFFF0A00000001000000C2
:100E280000366E0100F049020300000027000000B0
:100E380001000000FFFFFFFF0C00000001000000A0
:100E4800808D5B0000127A00000000002F00000077
:100E580003000000FFFFFFFF0C000000010000007E
:100E680000127A00001BB700000000001700000005
:100E780002000000FFFFFFFF0C000000010000005F
:100E8800001BB7000024F400010000002F00000040
:100E980002000000FFFFFFFF0C000000010000003F
:100EA8000024F40000366E01010000001700000065
:100EB80001000000FFFFFFFF0C0000000100000020
:100EC80000366E0180C3C901030000002F00000036
:100ED80001000000FFFFFFFF0C0000000100000000
:100EE80080C3C9010048E801030000002F0000008A
:100EF80001000000FFFFFFFF0E00000001000000DE
:100F0800808D5B00B6A1680000000000370000007B
:100F180003000000FFFFFFFF0E00000001000000BB
:100F2800B7A16800001BB700000000001B0000000C
:100F380002000000FFFFFFFF0E000000010000009C
:100F4800001BB7006D43D10001000000370000000E
:100F580002000000FFFFFFFF0E000000010000007C
:100F68006E43D10000366E01010000001B00000036
:100F780001000000FFFFFFFF0E000000010000005D
:100F880000366E01DB86A201030000003700000076
:100F980001000000FFFFFFFF10000000010000003B
:100FA800808D5B00001BB700000000001F000000E0
:100FB80002000000FFFFFFFF10000000010000001A
:100FC800001BB70000366E01010000001F00000082
:100FD80001000000FFFFFFFF1200000001000000F9
:100FE800808D5B00AAC2A200000000002300000060
:100FF80002000000FFFFFFFF1200000001000000D8
:10100800ABC2A200001BB7000000000011000000E6
:1010180001000000FFFFFFFF1200000001000000B8
:10102800001BB700558545010100000023000000A2
:1010380001000000FFFFFFFF140000000100000096
:10104800808D5B00007C92000000000027000000FB
:1010580002000000FFFFFFFF140000000100000075
:10106800007C9200001BB700000000001300000085
:1010780001000000FFFFFFFF140000000100000056
:10108800001BB70000F82401010000002700000041
:1010980001000000FFFFFFFF160000000100000034
:1010A800808D5B00E82A8500000000002B0000000E
:1010B80002000000FFFFFFFF160000000100000013
:1010C800E92A8500001BB700000000001500000099
:1010D80001000000FFFFFFFF1600000001000000F4
:1010E800001BB700D1550A01010000002B000000C9
:1010F80001000000FFFFFFFF1800000001000000D2
:10110800808D5B0000127A00000000002F000000B4
:1011180002000000FFFFFFFF1800000001000000B0
:1011280000127A00001BB700000000001700000042
:1011380001000000FFFFFFFF180000000100000091
:10114800001BB7000024F400010000002F0000007D
:1011580001000000FFFFFFFF1A000000010000006F
:10116800808D5B0027AE7000000000003300000097
:1011780002000000FFFFFFFF1A000000010000004E
:1011880028AE7000001BB700000000001900000026
:1011980001000000FFFFFFFF1A000000010000002F
:1011A800001BB7006658E100010000003300000092
:1011B80001000000FFFFFFFF1C000000010000000D
:1011C800808D5B00B6A168000000000037000000B9
:1011D80002000000FFFFFFFF1C00000001000000EC
:1011E800B7A16800001BB700000000001B0000004A
:1011F80001000000FFFFFFFF1C00000001000000CD
:10120800001BB7006D43D10001000000370000004B
:1012180001000000FFFFFFFF1E00000001000000AA
:10122800808D5B0000A86100000000003B0000000A
:1012380002000000FFFFFFFF1E0000000100000089
:1012480000A86100001BB700000000001D0000009E
:1012580001000000FFFFFFFF1E000000010000006A
:10126800001BB7000050C300010000003B00000055
:1012780001000000FFFFFFFF200000000100000048
:10128800808D5B00001BB700000000001F000000FD
:1012980001000000FFFFFFFFBC5301206054012044
:1012A800385801204C443072656400004C44306763
:1012B8007265656E000000004C4430626C75650014
:1012C80000000000005B0120365B0120825B0120EA
:1012D800C45B0120065C01200A63012088630120A9
:1012E800A0630120BC6301200A640120EE63012091
:1012F800266401205C6401204A66012010650120F3
:101308002865012044650120926501207665012049
:10131800AE650120E465012034600120F45F0120FE
:101328007A600120A4600120D060012016610120AC
:101338005661012096610120DC6101201C620120B8
:101348007E620120C8620120CE6401205666012019
:1013580076660120146D0120B46A0120906901208D
:10136800F66A01204C6B01206C6B01206C6801202F
:101378008C680120AC680120E66801201E69012004
:1013880058690120C06901200A6A01203A6A0120CF
:10139800846A0120A4130120000000006C696267C0
:1013A8006C6F737300000000000000801A51012068
:1013B8009E5101201A5201208E520120B05901205D
:0C13C800DE59012070720120907201209B
:10140000411106C622C40008294585262945B12E6A
:10141000B707012013858736E1292945B926B70783
:10142000012013858738E921B70701201385073B81
:10143000C121B70701201385873D5D29B70701202A
:10144000138507407521B7070120138587424D2179
:10145000B7070120138547456129B7070120138588
:1014600007487921B70701201385C74A5121B707DB
:1014700001201385874DAD29B707012013858750BB
:101480008529B7070120138587539D21B7070120C0
:1014900013858756B129B707012013854759892934
:1014A000B70701201385075CA121B7070120138529
:1014B000875E3D29B7070120138507611529B70706
:1014C0000120138547632D21B70701201385876508
:1014D0000521B7070120138587671929B707012060
:1014E000138587693121B70701201385476B0921CF
:1014F0002945A52C2945952CB70701201385076D93
:10150000C52E0100B240224441018280011106CE65
:1015100022CC00102326A4FE2324B4FE03A7818D31
:1015200083A7418EBE853A85EF10C004054723A0EE
:10153000E18E0100F240624405618280011106CE15
:1015400022CC26CA00102326A4FE23A0018E032548
:10155000C4FEEF10400783A4418D83A7418D3E85D3
:10156000EF00B0662A86AE86216581453307A60066
:101570003A883338C800B387B600B306F800B68798
:10158000BA853E862685EF00F06603A7818D83A786
:10159000418EBE853A85EF00107B010083A7018E46
:1015A000F5DF23A0018E0325C4FEEF100004010027
:1015B000F2406244D24405618280011106CE22CC01
:1015C0000010B70701209385876FB70701201385A7
:1015D000C76FEF10C0032326A4FEB7070120938531
:1015E0000770B70701201385C76FEF10400223244F
:1015F000A4FEB707012093858770B70701201385E4
:10160000C76FEF10C0002322A4FE8327C4FE99C732
:10161000832784FE81C7832744FE81EBB70701201F
:1016200013850771F124854725AA0325C4FEEF0021
:101630005077032584FEEF00D076032544FEEF00AB
:1016400050760325C4FEEF00507A032584FEEF0098
:10165000D079032544FEEF005079EF001067AA8788
:101660003E85EF00B0632A8723AAE18C83A7418DD2
:1016700081EBB7070120138507739D2C8947CDA007
:1016800083A7418D3E85EF00105F2A8723AEE18C52
:1016900083A7C18D81EBB70701201385C773892C00
:1016A0008D477DA883A7C18D3E85EF00B063893B40
:1016B00083A7418D3E85EF0050572A8723ACE18CEC
:1016C00083A7818D81EBB7070120138507760D2451
:1016D000914779A083A7818D3E85EF00B06083A7F5
:1016E000418D3E85EF00D0562A8723A2E18E03A7C5
:1016F000818D83A5418E83A7418DBE86B7170120BA
:101700001386C7503A85EF0030602320A4FE83275C
:1017100004FE63DC0700B707012013858778C92A18
:10172000832704FEB307F04025A883A7C18D814518
:101730003E85EF0050612A87FD576319F700B70710
:1017400001201385477B6D22994719A80325C4FE04
:10175000F533032584FEDD33032544FEC533FDB791
:101760003E85F240624405618280AA8517F5FE5FDE
:101770000325453411CD1C4D81EF011106CE2EC637
:101780002AC455232245B245F2401045056119A0EF
:101790001045F5BF011122CC06CE2A8401C91C4D8B
:1017A00091E732C62EC441233246A24597F7FFFF88
:1017B000938747046315F60250401C46FD171CC66C
:1017C00063DF0702184E63C7E70093F7F50F294759
:1017D0006397E70222856244F240056105A297F70C
:1017E000FFFF938727036314F6001044F9B797F7B8
:1017F000FFFF938727FEE312F6FC50447DBF1C4297
:1018000013F5F50F1387170018C22380B700F240B5
:10181000624405618280011126CA4AC806CE22CCE4
:101820004EC652C4AA842E8901C51C4D91E3E529F8
:101830009C4C804499E32685FD2197F7FFFF938711
:1018400067FB631CF402C0408357C400A18BB1C77F
:101850001C48A1C7FD59294A1C4483450900FD17AE
:10186000B1E91CC463DE07062286A94526857920D6
:10187000FD576308F502294535A097F7FFFF9387C9
:1018800067F96314F4008044C1B797F7FFFF9387AB
:1018900067F4E31BF4FAC04445BFA2852685392AC4
:1018A00055D97D55F2406244D2444249B249224A58
:1018B000056182801CC4050963D70700184C63CBFF
:1018C000E700638945011C401387170018C0238077
:1018D000B70059B7228626851520E31F35F7D1B703
:1018E0001C401387170018C029472380E70061B701
:1018F000AA8517F5FE5F0325E51B31BF011122CC38
:1019000026CA4AC806CE4EC6AA842E89328401C58C
:101910001C4D91E3092997F7FFFF9387A7ED631902
:10192000F406C0401C4C1CC48357C400A18BC9C31F
:101930001C48BDCF1C4808409379F90F1379F90F63
:101940001D8D5C486346F500A2852685C1242DE5E2
:101950001C440505FD171CC41C401387170018C044
:10196000238037015C486389A7008357C400858BB7
:1019700081CBA9476316F900A2852685412C0DED80
:10198000F2406244D244B2494A85424905618280AC
:1019900097F7FFFF938707E86314F400804459B773
:1019A00097F7FFFF938707E3E31EF4F6C0449DBF5C
:1019B000A285268521203DDD7D59D9B7411122C45C
:1019C00026C24AC006C697F4FE5F83A4A40E2A89E5
:1019D0002E8489C49C4C99E32685B12697F7FFFF96
:1019E000938747E16317F402C0408317C40013973D
:1019F000070193F687004183ADEA9376070195EAE4
:101A000025472320E90093E707042316F4007D55BA
:101A100071A897F7FFFF9387E7DF6314F400804412
:101A2000E9B797F7FFFF9387E7DAE310F4FCC044C8
:101A30006DBF118B0DC74C5889C99307440463844B
:101A4000F5004A85C52B232A04028357C4002322AC
:101A5000040093F7B7FD2316F4001C481CC08357FD
:101A6000C40093E787002316F4001C4881EF8357D6
:101A7000C4001307002093F707286385E700A285B9
:101A80004A85BD218317C4001397070193F61700F9
:101A900041839DC2544823240400B306D04014CC93
:101AA0001448014581E61377070831FFB24022440C
:101AB000924402494101828093762700014691E2D7
:101AC000504810C4F1BF83D7C500011122CC26CAEB
:101AD00006CE4AC84EC613F78700AA842E8475E343
:101AE000D8416347E000B8416344E000014575A870
:101AF00058546DDF856603A90400F58F23A0040008
:101B0000A5CF68488357C400918B99C75C401D8D51
:101B10005C5899C33C401D8D5C540C502A8681460C
:101B200026858297FD570357C400631DF500944036
:101B3000F54763E3D708B70740208507B3D7D70039
:101B4000858BBDCB1C48232204001CC085677D8F7C
:101B500019C7FD576314F5009C4091E368C84C58C1
:101B600023A02401C1D5930744046384F50026858E
:101B7000D121232A04029DBF0C50854601462685AB
:101B80000297FD57E310F5F89C40ADDF754763857C
:101B9000E70059476395E70023A0240181BF8357DD
:101BA000C40093E707042316F400F2406244D244D1
:101BB0004249B24905618280136707042316E40095
:101BC000EDB783A90501E38309F203A905008D8B15
:101BD00023A0350133093941014791E3D84918C49D
:101BE000E35620F11C540C50CA864E8626858297F7
:101BF000634AA0008357C4007D5593E7070423166A
:101C0000F40065B7AA993309A940D9BF9C49B9CF57
:101C1000011122CC06CE2A8411C51C4D81E72EC6A7
:101C20001922B24597F7FFFF9387C7BC639BF50066
:101C30004C408397C50095C722856244F2400561F8
:101C400059B597F7FFFF9387E7BC6394F5000C4401
:101C5000CDB797F7FFFF9387E7B7E39CF5FC4C44BC
:101C6000C9BFF2406244014505618280014582801E
:101C7000411122C406C62A842316B5002317C500C5
:101C80002320050023220500232405002322050626
:101C900023280500232A0500232C05002146814521
:101CA0001305C505E52497070000938787535CD08B
:101CB000970700009387E7551CD497070000938788
:101CC000275A5CD4970700009387E75CB24000D0A6
:101CD0001CD822444101828097050000938545F37A
:101CE000B1A2411126C2130680069384F5FFB38486
:101CF000C4024AC02E8922C406C693854407E12E39
:101D00002A8419C92320050023222501310508C48E
:101D10001386840681459D2CB2402285224492443C
:101D20000249410182801C4DBDE3411122C406C617
:101D300097070000938787FA1CD5232405042326E0
:101D400005042328050497F7FFFF83A7A7662A84C5
:101D50006314F50085471CCD22851D2848C02285C7
:101D6000052808C422852D2048C4484001469145D5
:101D7000013708440546A545E53D48440946C9459F
:101D8000C53D8547B2401CCC2244410182808280FF
:101D9000411126C297F4FFFF83A4C4619C4C4AC042
:101DA00006C622C42A8999E32685B53F9384840414
:101DB0008044DC40FD1763D607009C40B1CF8440CF
:101DC000C5BF0317C40031E7C17785072322040686
:101DD0002320040023220400232404005CC42328BD
:101DE0000400232A0400232C040021468145130506
:101DF000C405692A232A0402232C04022324040490
:101E000023260404B240228522449244024941011F
:101E100082801304840679BF91454A85D93588C0EC
:101E20002A8451FDB1472320F900E9BF797122D4FA
:101E30004AD04ECE52CC5AC85EC606D626D256CA14
:101E40002A892E8A130485048149054BFD5B0444CD
:101E5000832A4400FD1A63D00A0200406DF8B25094
:101E6000225492540259624AD24A424BB24B4E8596
:101E7000F2494561828083D7C400637BFB0083976E
:101E8000E40063877701A6854A85029AB3E9A90031
:101E900093848406C1B75971CAD02E898395E50011
:101EA000A2D4A6D286D63284B68463DC050083171A
:101EB000C90023A0040093F707088DE393070040AF
:101EC00005A030002529E34405FE3247BD67F98FA0
:101ED0007977BA9793B717009CC0CDB793070004E2
:101EE000B6501CC02654965406590145656182803F
:101EF00083D7C500011122CC06CE26CA4AC8898BD9
:101F00002E8489CF930774041CC01CC885475CC805
:101F1000F2406244D244424905618280740030003C
:101F20002A89953FA245AA844A85752201ED831727
:101F3000C40013F7072069FFF19B93E727002316DE
:101F4000F400C9B797070000938747D92324F90203
:101F50008357C40008C008C893E707082316F40095
:101F6000A2475CC8B24789CF8315E4004A85C126E1
:101F700001C98357C400F19B93E717002316F400AF
:101F80000355C400C98C2316940059B73D432A87D2
:101F90006373C3029377F700BDEFADE5937606FF59
:101FA0003D8ABA960CC34CC30CC74CC74107E36BC0
:101FB000D7FE11E28280B306C3408A069702000072
:101FC00096966780A6002307B700A306B7002306EE
:101FD000B700A305B7002305B700A304B700230487
:101FE000B700A303B7002303B700A302B70023027F
:101FF000B700A301B7002301B700A300B700230077
:10200000B700828093F5F50F93968500D58D939652
:102010000501D58D61B7939627009702000096962B
:102020008682E78086FA9680C1171D8F3E96E374FC
:10203000C3F8A5B7C5C183A7C5FF011122CC06CE41
:102040001384C5FF63D307003E942AC6992617F769
:10205000FE5F130727A91C43324581EB23220400AE
:1020600000C36244F240056135A6637DF400104070
:10207000B306C4006396D7009443DC43B29614C001
:102080005CC0F9BF3E87DC4399C3E37DF4FE144393
:102090003306D700631F86001040B29614C3330680
:1020A000D700E390C7FC9043DC43B29614C35CC3F3
:1020B0004DBF6375C400B1471CC165B71040B3067E
:1020C000C4006396D7009443DC43B29614C05CC04E
:1020D00040C341BF8280011126CA93843500F19824
:1020E0004AC806CE22CC4EC6A104B1472A8963F461
:1020F000F404B14463E3B4044A85612C97F6FE5FAF
:102100009386469E98423A8421E417F4FE5F1304B6
:10211000A49D1C4089E781454A85512808C0A685B1
:102120004A857120FD5963183507B1472320F9000E
:102130004A858D2431A0E3DF04FAB1472320F9005A
:102140000145F2406244D2444249B249056182806D
:102150001C40858F63CE07022D466376F6001CC0B7
:102160003E9404C029A05C40631287029CC24A8549
:1021700015241305B4009307440061993307F54013
:10218000E301F5FC3A94898F1CC065BF5CC3C5B7F9
:102190002287404095BF130435007198E30385FC06
:1021A000B305A4404A852120E31D35FBBDBF411185
:1021B00022C42A842E8597F7FE5F23A9079206C6BC
:1021C000EF50001BFD576318F50097F7FE5F83A7DC
:1021D000E79191C31CC0B240224441018280411169
:1021E00022C42E848395E50006C675226349050046
:1021F0007C48AA977CC8B240224441018280835720
:10220000C4007D777D17F98F2316F400EDB783D7CF
:10221000C500011122CC26CA4AC84EC606CE93F785
:102220000710AA842E843289B68991C78395E50068
:10223000894601462D228357C4007D777D17F98F8B
:102240008315E4002316F4006244F240CE864A86E9
:10225000B24942492685D24405613DA8411122C4B4
:102260002E848395E50006C6DD28FD570357C4007C
:10227000631BF500FD77FD17F98F2316F400B240BC
:102280002244410182808567D98F2316F40068C8F3
:10229000FDB78395E5001DA8411122C42A842E852F
:1022A000B285368697F7FE5F23A2078406C6EF50F5
:1022B000C012FD576318F50097F7FE5F83A70783E9
:1022C00091C31CC0B240224441018280411122C40A
:1022D0002A842E8597F7FE5F23AA078006C6EF4063
:1022E000707DFD576318F50097F7FE5F83A70780A1
:1022F00091C31CC0B240224441018280411122C4DA
:102300002A842E85B28597E7FE5F23A1077E06C645
:10231000EF40707CFD576318F50097E7FE5F83A7D9
:10232000E77C91C31CC0B24022444101828041112C
:1023300022C42A842E8597E7FE5F23A9077A06C662
:10234000EF40D07BFD576318F50097E7FE5F83A74A
:10235000E77991C31CC0B2402244410182804111FF
:1023600022C42A842E85B285368697E7FE5F23AF86
:10237000077606C6EF40907AFD576318F50097E799
:10238000FE5F83A7A77691C31CC0B24022444101DF
:10239000828082808280411122C42A842E85B28567
:1023A000368697E7FE5F23A3077406C6EF40B07931
:1023B000FD576318F50097E7FE5F83A7277391C366
:1023C0001CC0B240224441018280011106CE22CCC1
:1023D00000102326A4FE8327C4FE9C439C470325AC
:1023E000C4FE82972A87AE873A85BE85F240624452
:1023F00005618280011106CE22CC00102326A4FEA6
:102400002320B4FE2322C4FE8327C4FE9C43DC4762
:10241000832504FE032644FE0325C4FE8297AA8773
:102420003E85F240624405618280011106CE22CCD5
:1024300000102326A4FE8327C4FE9C439C4B032547
:10244000C4FE8297AA873E85F2406244056182807D
:10245000011106CE22CC00102326A4FE8327C4FE41
:102460009C43DC4B0325C4FE8297AA873E85F2403D
:10247000624405618280011106CE22CC0010232621
:10248000A4FE8327C4FE9C43DC570325C4FE829729
:10249000AA873E85F240624405618280011122CE06
:1024A00000102326A4FE8327C4FE99EBB7170080F3
:1024B0000327C4FE0A07938747ABBA979C4311A032
:1024C00081473E85724405618280011122CE001051
:1024D000F32740F12326F4FE8327C4FE3E85724491
:1024E00005618280011106CE22CC00102326A4FEB5
:1024F0008327C4FE9C439C430325C4FE82970100AE
:10250000F240624405618280011106CE22CC0010A7
:102510002326A4FE2324B4FE2322C4FE2320D4FEBB
:102520008327C4FE9C43DC4F832604FE032644FE1F
:10253000832584FE0325C4FE8297AA873E85F24048
:10254000624405618280011106CE22CC0010232650
:10255000A4FE2324B4FE8327C4FE9C43DC538325BE
:1025600084FE0325C4FE8297AA873E85F24062441A
:1025700005618280011106CE22CC00102326A4FE24
:102580002324B4FE8327C4FE9C439C57832584FEEA
:102590000325C4FE8297AA873E85F2406244056106
:1025A0008280011106CE22CC00102326A4FE8327B0
:1025B000C4FE9C43DC430325C4FE82970100F24025
:1025C000624405618280011106CE22CC00102326D0
:1025D000A4FE8327C4FE9C439C470325C4FE829728
:1025E0000100F240624405618280011106CE22CCD6
:1025F00000102326A4FE8327C4FE9C43DC4703254A
:10260000C4FE82970100F2406244056182807571C8
:1026100006C722C50009232EA4F6232CB4F683276F
:10262000C4F781C7832784F799E38147BDA0930747
:1026300044F88325C4F73E85EF50A001930744F882
:10264000832584F73E85EF40306D232604FE81A06C
:10265000B7070080138707068327C4FE8A07BA9747
:102660009C432324F4FE832784FE9C4398439307D2
:1026700044F8BE85032584FE0297AA8781C7832775
:1026800084FE21A88327C4FE85072326F4FE0327A2
:10269000C4FE8947E3DEE7FA81473E85BA402A4413
:1026A00049618280011122CE00102326A4FE032757
:1026B000C4FEB7170080938787AB6315F700B70791
:1026C000000211A081473E8572440561828001119C
:1026D00022CE00102326A4FE0327C4FEB7170080D5
:1026E000938787AB6314F700894711A081473E8524
:1026F000724405618280011122CE00102326A4FEBF
:102700002324B4FE832784FE91E7B70700809387D4
:10271000070A21A8032784FE85476317F700B70738
:1027200000809387070A11A081473E8572440561A6
:102730008280011122CE00102326A4FE2324B4FEA1
:10274000832784FE99E38D4709A8032784FE8547E4
:102750006314F7009D4711A081473E8572440561CF
:1027600082805D7186C6A2C4CAC2CEC052DE56DC6B
:102770005ADA5ED862D666D48008232EA4FA83275C
:10278000C4FB3E8505372326A4FC0327C4FCB167A0
:10279000F117BA979C432324F4FC0327C4FCB167C8
:1027A000E117BA979C432322F4FC0327C4FCB167CA
:1027B000F117BA979C43032784FCE318F7FC83279F
:1027C00084FC3E8C814C93190C000149832744FC06
:1027D0003E8A814A336B4901B3EB59015A87DE8740
:1027E0003A85BE85B640264416498649725AE25A51
:1027F000525BC25B325CA25C61618280797106D6F9
:1028000022D44AD24ED00018232EA4FC232CB4FC90
:102810002328C4FC232AD4FC8327C4FD2326F4FEEA
:102820008327C4FE3E85BD3D2324A4FE832784FD6B
:102830008E073E87832784FE3E9791679107BA975C
:102840003E87FD571CC3832784FD8E073E87832761
:1028500084FE3E979167BA973E87832704FD1CC389
:10286000832744FD13D907008149832784FD8E0700
:102870003E87832784FE3E9791679107BA974A87E0
:1028800098C381473E85B2502254125982594561FE
:102890008280011106CE22CC0010232604FEF327ED
:1028A00040F12326F4FE8327C4FE3E85C53E232443
:1028B000A4FE032584FEC136AA873E85F240624409
:1028C00005618280397106DE22DC80002326A4FCAB
:1028D0000325C4FCED3B2324A4FE8327C4FC232250
:1028E000F4FE832744FEDC43A9EF232604FE81A0E7
:1028F0008325C4FE0325C4FCFD3B2320A4FE8325C1
:10290000C4FE0325C4FC3535232EA4FC832704FE16
:102910009C43DC4F8326C4FC01468325C4FD03256C
:1029200004FE82978327C4FE85072326F4FE03272F
:10293000C4FE832784FEE34DF7FA832744FE054750
:10294000D8C30100F250625421618280397106DEE1
:1029500022DC80002326A4FC2324B4FC2322C4FC14
:102960002320D4FCFD572326F4FEEF10004723203C
:10297000A4FE232404FE313F232EA4FC0325C4FC23
:10298000B933232CA4FC032704FE85476308F70012
:10299000832704FE81C78327C4FE49A0232204FEA7
:1029A00091A0832544FE0325C4FC6133232AA4FCA3
:1029B000832544FE0325C4FC3D3B2324A4FE0327BA
:1029C000C4FD832784FE6318F700032784FC832754
:1029D00044FD6300F702232404FE832744FE850799
:1029E0002322F4FE032744FE832784FDE34BF7FAFA
:1029F00011A00100832784FE85C3832784FE9C43A6
:102A0000DC4F832604FC032644FC832584FC032539
:102A100084FE82972326A4FE8327C4FE3E85F250BF
:102A2000625421618280797122D60018232EA4FC81
:102A3000232CB4FC232AC4FC2328D4FCFD572326D2
:102A4000F4FE8327C4FE3E85325445618280011125
:102A500006CE22CC00102326A4FEEF100038AA8751
:102A60003E85F240624405618280797106D622D4A7
:102A70000018232EA4FC232CB4FCFD572326F4FEBF
:102A8000093D2324A4FE832784FE95C3032784FDE8
:102A9000854763E0E702832784FE9C43DC4383256C
:102AA00084FD032584FE82972326A4FE21A0010035
:102AB00011A001008327C4FE3E85B2502254456117
:102AC0008280397106DE22DC80002326A4FC2324C8
:102AD000B4FCFD572326F4FE832784FCC9C72324B6
:102AE00004FE453B2320A4FE0325C4FCCD36232E43
:102AF000A4FC232204FE91A0832544FE0325C4FCEC
:102B00000D39232CA4FC832544FE0325C4FCE536A3
:102B10002324A4FE032704FE832784FE6318F70002
:102B2000032784FC832784FD6300F702232404FE2B
:102B3000832744FE85072322F4FE032744FE8327D0
:102B4000C4FDE34BF7FA11A00100832784FE81CF77
:102B5000832784FE9C43DC53832584FC032584FE69
:102B600082972326A4FE8327C4FE3E85F25062543A
:102B700021618280397106DE22DC80002326A4FCDC
:102B80002324B4FCFD572326F4FE832784FCC1CB09
:102B9000232404FEFD392320A4FE0325C4FCEFF00A
:102BA0001FB3232EA4FC232204FEA1A0832544FEF0
:102BB0000325C4FCEFF0FFB7232CA4FC832544FEBF
:102BC0000325C4FCEFF03FB32324A4FE032704FE37
:102BD000832784FE6318F700032784FC832784FD82
:102BE0006300F702232404FE832744FE8507232283
:102BF000F4FE032744FE8327C4FDE349F7FA11A03E
:102C00000100832784FE81CF832784FE9C439C5749
:102C1000832584FC032584FE82972326A4FE832734
:102C2000C4FE3E85F250625421618280797106D6DD
:102C300022D40018232EA4FC232CB4FC232AC4FC89
:102C4000FD572326F4FE8327C4FD2324F4FE032529
:102C5000C4FDEFF03FA52322A4FE032784FD914786
:102C60006301F70C032784FD914763C1E70E032737
:102C700084FD8D476306F706032784FD8D4763C7F0
:102C8000E70C032784FD85476308F700032784FDCD
:102C900089476303F7025DA8832744FDD5CB03254D
:102CA00084FEEFF01FAC2A87AE87832644FD98C2CE
:102CB000DCC2232604FE69A8832744FDC1CF8327F5
:102CC00044FD9C432320F4FE832704FE8A073E87AD
:102CD000832744FEBA9723A00700232604FE9DA85D
:102CE000832744FDB5CB832744FD9C432320F4FE7A
:102CF000832704FE8A073E87832744FEBA973E87D0
:102D000085471CC30F008004832704FE8A073E8783
:102D1000832744FEBA979C432326F4FE232604FE11
:102D200025A8232604FE832744FD8DCB832744FD5D
:102D30009C432320F4FE832704FE8A073E878327D3
:102D400044FEBA979C432326F4FE09A8010001A87B
:102D5000010031A0010021A0010011A00100832782
:102D6000C4FE3E85B250225445618280797106D6F8
:102D700022D40018232EA4FC232CB4FCEFF0EFF493
:102D8000AA872326F4FE9307C4FE3E8689450325C1
:102D9000C4FD693DAA873E85B250225445618280B8
:102DA000797106D622D40018232EA4FC232CB4FC5F
:102DB000EFF0AFF1AA872326F4FE9307C4FE3E8608
:102DC0008D450325C4FD9D35AA873E85B25022540A
:102DD00045618280011122CE00102326A4FE032724
:102DE000C4FE938701816314F700814711A0FD574A
:102DF0003E85724405618280011122CE0010232697
:102E0000A4FE0327C4FE938701816317F700B72749
:102E1000F4009387074011A081473E857244056105
:102E20008280011122CE00102326A4FE0327C4FEB7
:102E3000938701816317F700B70700809387070A1C
:102E400011A081473E85724405618280011122CE26
:102E500000102326A4FE0327C4FE93870181631478
:102E6000F700814711A081473E8572440561828049
:102E7000011122CE00102326A4FE8327C4FE634C3A
:102E8000F000B71700800327C4FE0A07938747ABFB
:102E9000BA979C4311A081473E85724405618280A8
:102EA000011122CE0010F32740F12326F4FE8327E0
:102EB000C4FE3E85724405618280011122CE00105D
:102EC000A147F3A707302326F4FE010072440561F1
:102ED0008280011122CE0010A147F3B707302326CC
:102EE000F4FE0100724405618280011122CE0010BF
:102EF000A147F3A747302326F4FE01007244056181
:102F00008280011122CE0010A147F3B7473023265B
:102F1000F4FE0100724405618280011122CE00108E
:102F200093070008F3A747302326F4FE01007244FC
:102F300005618280011122CE001093070008F3B7CB
:102F400047302326F4FE010072440561828001119E
:102F500022CE0010856793870780F3A7473023268A
:102F6000F4FE0100724405618280011122CE00103E
:102F7000856793870780F3B747302326F4FE010067
:102F8000724405618280797122D60018232EA4FC38
:102F90008327C4FD0547B317F7002326F4FE8327D4
:102FA000C4FEF3A747302324F4FE010032544561E8
:102FB0008280797122D60018232EA4FC8327C4FDB9
:102FC0000547B317F7002326F4FE8327C4FEF3B7A3
:102FD00047302324F4FE0100325445618280011100
:102FE00006CE22CC00102326A4FE2324B4FE130513
:102FF0004006EF406008011106CE22CC00102326C7
:10300000A4FE2324B4FE1305800CEF40E0065D719E
:1030100086C696C49AC29EC022DE2ADC2EDA32D838
:1030200036D63AD43ED242D046CE72CC76CA7AC890
:103030007EC680081305C012EF4000041D7186CEC5
:1030400096CC9ACA9EC8A2C6AAC4AEC2B2C036DE88
:103050003ADC3EDA42D846D672D476D27AD07ECEE8
:1030600080103D3D2A87B71700800A07938747AB3A
:10307000BA979C432326F4FA8327C4FA85C703250D
:10308000C4FA45332324A4FA832784FA83A7070EBE
:103090002322F4FA832784FA83A7870D832544FA31
:1030A0000D4582970100F640E6425643C64336443A
:1030B000264596450646F2566257D2574258B258B0
:1030C000225E925E025FF24F2561730020307971BB
:1030D00006D622D40018232EA4FC232CB4FCC9331A
:1030E0002A87B71700800A07938747ABBA979C4394
:1030F0002326F4FEF32720342324F4FE8327C4FE82
:1031000095C70325C4FE313B2322A4FE832784FEFA
:1031100093F7F73F032744FE9387870E8A07BA97F2
:103120009C438325C4FD0325C4FE82970100B25051
:103130002254456182801D7186CE96CC9ACA9EC863
:10314000A2C6AAC4AEC2B2C036DE3ADC3EDA42D86B
:1031500046D672D476D27AD07ECE801091332A872A
:10316000B71700800A07938747ABBA979C4323267B
:10317000F4FA8327C4FA85C70325C4FA5D312324F2
:10318000A4FA832784FA83A707142322F4FA832757
:1031900084FA83A78713832544FA1D45829701008B
:1031A000F640E6425643C643364426459645064613
:1031B000F2566257D2574258B258225E925E025F70
:1031C000F24F256173002030011122CE001023261A
:1031D000A4FE2324B4FE010072440561828079714B
:1031E00006D622D40018232EA4FC232CB4FC4D397F
:1031F000AA873E85B5392326A4FE0325C4FEEF1019
:10320000802A2320A4FE2322B4FE032704FE832762
:1032100044FE294581453306A70032883338E8004B
:10322000B386B700B307D800BE863287B687BA85A3
:103230003E860325C4FEEF10602D0100B2502254DB
:1032400045618280000000000000000000000000D6
:10325000000000000000000000000000000000006E
:10326000000000000000000000000000000000005E
:10327000000000000000000000000000000000004E
:10328000197186DE96DC9ADA9ED8A2D6AAD4AED27E
:10329000B2D0B6CEBACCBECAC2C8C6C6F2C4F6C296
:1032A000FAC07EDE0001EFF0BFBF2A87B7170080AB
:1032B0000A07938747ABBA979C432326F4FAF32770
:1032C00020342324F4FAF32710342322F4FAF327CA
:1032D00030342320F4FAF3275030232EF4F88327D8
:1032E000C4FAFDCB0325C4FAEFF0BFB3232CA4F836
:1032F000832784FA93F7F73F232AF4F8832784FA85
:1033000063DE070A032744F9930700086312F702F4
:10331000832784F983A787392326F4F8832784F940
:1033200083A707398325C4F8032544F982976DA044
:10333000032744F9AD4763D7E7008327C4F993F720
:10334000F7039DEF832684F9032744F9BA8786079C
:10335000BA978E07B69783A787092326F4F88326A2
:1033600084F9032744F9BA878607BA978E07B69778
:1033700083A707098325C4F8032544F98297A9A8E0
:103380008327C4F913F7F70389476317F704F32773
:1033900070302328F4F8832784F983A7C70D2326E8
:1033A000F4F8832704F99C432324F4F8832784F852
:1033B0008325C4F8032544F9829739A8032784F9A3
:1033C000832744F99387870E8A07BA979C438325FE
:1033D00044F90325C4FA8297F650E6525653C65371
:1033E0003654265596550656F6466647D6474648FD
:1033F000B648264E964E064FF25F096173002030A4
:1034000000000000000000000000000000000000BC
:1034100000000000000000000000000000000000AC
:10342000000000000000000000000000000000009C
:10343000000000000000000000000000000000008C
:10344000000000000000000000000000000000007C
:10345000000000000000000000000000000000006C
:10346000000000000000000000000000000000005C
:10347000000000000000000000001D7186CE96CC08
:103480009ACA9EC8A2C6AAC4AEC2B2C036DE3ADC90
:103490003EDA42D846D672D476D27AD07ECE80102A
:1034A000EFF01FA02A87B71700800A07938747AB62
:1034B000BA979C432326F4FA8327C4FA8DC70325C1
:1034C000C4FAEFF01F962324A4FA832784FA83A773
:1034D00087212322F4FA832784FA83A707218325EF
:1034E00044FA414582970100F640E6425643C643FE
:1034F0003644264596450646F2566257D2574258FC
:10350000B258225E925E025FF24F25617300203056
:103510001D7186CE96CC9ACA9EC8A2C6AAC4AEC257
:10352000B2C036DE3ADC3EDA42D846D672D476D223
:103530007AD07ECE8010EFF0BF962A87B717008032
:103540000A07938747ABBA979C432326F4FA83274D
:10355000C4FA8DC70325C4FAEFF0BF8C2324A4FA64
:10356000832784FA83A707232322F4FA832784FA84
:1035700083A78722832544FA454582970100F640B8
:10358000E6425643C6433644264596450646F2561D
:103590006257D2574258B258225E925E025FF24F93
:1035A0002561730020301D7186CE96CC9ACA9EC8C4
:1035B000A2C6AAC4AEC2B2C036DE3ADC3EDA42D8F7
:1035C00046D672D476D27AD07ECE8010EFF05F8D60
:1035D0002A87B71700800A07938747ABBA979C439F
:1035E0002326F4FA8327C4FA8DC70325C4FAEFF023
:1035F0005F832324A4FA832784FA83A787242322C2
:10360000F4FA832784FA83A70724832544FA4945DB
:1036100082970100F640E6425643C64336442645AB
:1036200096450646F2566257D2574258B258225E25
:10363000925E025FF24F2561730020301D7186CECD
:1036400096CC9ACA9EC8A2C6AAC4AEC2B2C036DE82
:103650003ADC3EDA42D846D672D476D27AD07ECEE2
:103660008010EFF0FF832A87B71700800A0793873F
:1036700047ABBA979C432326F4FA8327C4FA8DC735
:103680000325C4FAEFF0EFF92324A4FA832784FA80
:1036900083A707262322F4FA832784FA83A78725A2
:1036A000832544FA4D4582970100F640E642564391
:1036B000C6433644264596450646F2566257D257CB
:1036C0004258B258225E925E025FF24F256173004B
:1036D00020301D7186CE96CC9ACA9EC8A2C6AAC4B6
:1036E000AEC2B2C036DE3ADC3EDA42D846D672D43A
:1036F00076D27AD07ECE8010EFF08FFA2A87B71775
:1037000000800A07938747ABBA979C432326F4FAB5
:103710008327C4FA8DC70325C4FAEFF08FF0232462
:10372000A4FA832784FA83A787272322F4FA83271E
:1037300084FA83A70727832544FA5145829701001D
:10374000F640E6425643C64336442645964506466D
:10375000F2566257D2574258B258225E925E025FCA
:10376000F24F2561730020301D7186CE96CC9ACA27
:103770009EC8A2C6AAC4AEC2B2C036DE3ADC3EDAE9
:1037800042D846D672D476D27AD07ECE8010EFF070
:103790002FF12A87B71700800A07938747ABBA979C
:1037A0009C432326F4FA8327C4FA8DC70325C4FA61
:1037B000EFF02FE72324A4FA832784FA83A70729AD
:1037C0002322F4FA832784FA83A78728832544FADF
:1037D000554582970100F640E6425643C6433644BB
:1037E000264596450646F2566257D2574258B25879
:1037F000225E925E025FF24F2561730020301D71E0
:1038000086CE96CC9ACA9EC8A2C6AAC4AEC2B2C080
:1038100036DE3ADC3EDA42D846D672D476D27AD058
:103820007ECE8010EFF0CFE72A87B71700800A0717
:10383000938747ABBA979C432326F4FA8327C4FAAD
:103840008DC70325C4FAEFF0CFDD2324A4FA832724
:1038500084FA83A7872A2322F4FA832784FA83A78A
:10386000072A832544FA594582970100F640E6422B
:103870005643C6433644264596450646F256625799
:10388000D2574258B258225E925E025FF24F2561D3
:10389000730020301D7186CE96CC9ACA9EC8A2C6EF
:1038A000AAC4AEC2B2C036DE3ADC3EDA42D846D650
:1038B00072D476D27AD07ECE8010EFF06FDE2A8777
:1038C000B71700800A07938747ABBA979C43232614
:1038D000F4FA8327C4FA8DC70325C4FAEFF06FD436
:1038E0002324A4FA832784FA83A7072C2322F4FA3B
:1038F000832784FA83A7872B832544FA5D45829723
:103900000100F640E6425643C643364426459645F6
:103910000646F2566257D2574258B258225E925E1D
:10392000025FF24F2561730020301D7186CE96CC68
:103930009ACA9EC8A2C6AAC4AEC2B2C036DE3ADCDB
:103940003EDA42D846D672D476D27AD07ECE801075
:10395000EFF00FD52A87B71700800A07938747AB88
:10396000BA979C432326F4FA8327C4FA8DC703250C
:10397000C4FAEFF00FCB2324A4FA832784FA83A799
:10398000872D2322F4FA832784FA83A7072D832522
:1039900044FA614582970100F640E6425643C64329
:1039A0003644264596450646F2566257D257425847
:1039B000B258225E925E025FF24F256173002030A2
:1039C0001D7186CE96CC9ACA9EC8A2C6AAC4AEC2A3
:1039D000B2C036DE3ADC3EDA42D846D672D476D26F
:1039E0007AD07ECE8010EFF0AFCB2A87B717008059
:1039F0000A07938747ABBA979C432326F4FA832799
:103A0000C4FA8DC70325C4FAEFF0AFC12324A4FA8A
:103A1000832784FA83A7072F2322F4FA832784FAC3
:103A200083A7872E832544FA654582970100F640D7
:103A3000E6425643C6433644264596450646F25668
:103A40006257D2574258B258225E925E025FF24FDE
:103A50002561730020301D7186CE96CC9ACA9EC80F
:103A6000A2C6AAC4AEC2B2C036DE3ADC3EDA42D842
:103A700046D672D476D27AD07ECE8010EFF04FC286
:103A80002A87B71700800A07938747ABBA979C43EA
:103A90002326F4FA8327C4FA8DC70325C4FAEFF06E
:103AA0004FB82324A4FA832784FA83A787302322DC
:103AB000F4FA832784FA83A70730832544FA6945FB
:103AC00082970100F640E6425643C64336442645F7
:103AD00096450646F2566257D2574258B258225E71
:103AE000925E025FF24F2561730020301D7186CE19
:103AF00096CC9ACA9EC8A2C6AAC4AEC2B2C036DECE
:103B00003ADC3EDA42D846D672D476D27AD07ECE2D
:103B10008010EFF0EFB82A87B71700800A07938765
:103B200047ABBA979C432326F4FA8327C4FA8DC780
:103B30000325C4FAEFF0EFAE2324A4FA832784FA16
:103B400083A707322322F4FA832784FA83A78731D5
:103B5000832544FA6D4582970100F640E6425643BC
:103B6000C6433644264596450646F2566257D25716
:103B70004258B258225E925E025FF24F2561730096
:103B800020301D7186CE96CC9ACA9EC8A2C6AAC401
:103B9000AEC2B2C036DE3ADC3EDA42D846D672D485
:103BA00076D27AD07ECE8010EFF08FAF2A87B7170B
:103BB00000800A07938747ABBA979C432326F4FA01
:103BC0008327C4FA8DC70325C4FAEFF08FA52324F9
:103BD000A4FA832784FA83A787332322F4FA83275E
:103BE00084FA83A70733832544FA7145829701003D
:103BF000F640E6425643C6433644264596450646B9
:103C0000F2566257D2574258B258225E925E025F15
:103C1000F24F2561730020301D7186CE96CC9ACA72
:103C20009EC8A2C6AAC4AEC2B2C036DE3ADC3EDA34
:103C300042D846D672D476D27AD07ECE8010EFF0BB
:103C40002FA62A87B71700800A07938747ABBA9732
:103C50009C432326F4FA8327C4FA8DC70325C4FAAC
:103C6000EFF02F9C2324A4FA832784FA83A7073537
:103C70002322F4FA832784FA83A78734832544FA1E
:103C8000754582970100F640E6425643C6433644E6
:103C9000264596450646F2566257D2574258B258C4
:103CA000225E925E025FF24F2561730020301D712B
:103CB00086CE96CC9ACA9EC8A2C6AAC4AEC2B2C0CC
:103CC00036DE3ADC3EDA42D846D672D476D27AD0A4
:103CD0007ECE8010EFF0CF9C2A87B71700800A07AE
:103CE000938747ABBA979C432326F4FA8327C4FAF9
:103CF0008DC70325C4FAEFF0CF922324A4FA8327BB
:103D000084FA83A787362322F4FA832784FA83A7C9
:103D10000736832544FA794582970100F640E6424A
:103D20005643C6433644264596450646F2566257E4
:103D3000D2574258B258225E925E025FF24F25611E
:103D4000730020301D7186CE96CC9ACA9EC8A2C63A
:103D5000AAC4AEC2B2C036DE3ADC3EDA42D846D69B
:103D600072D476D27AD07ECE8010EFF06F932A870D
:103D7000B71700800A07938747ABBA979C4323265F
:103D8000F4FA8327C4FA8DC70325C4FAEFF06F89CC
:103D90002324A4FA832784FA83A707382322F4FA7A
:103DA000832784FA83A78737832544FA7D45829742
:103DB0000100F640E6425643C64336442645964542
:103DC0000646F2566257D2574258B258225E925E69
:103DD000025FF24F256173002030011122CE0010E6
:103DE000F32750302326F4FE8327C4FE93F7F7030E
:103DF0002326F4FE0327C4FE8D476303F70203273F
:103E0000C4FE8D4763E2E7020327C4FE8547630BC8
:103E1000F7000327C4FE89476318F7008D4731A0D8
:103E2000914721A0854711A081473E8572440561D5
:103E30008280797122D60018232EA4FC232CB4FC96
:103E4000F32750302326F4FE8327C4FE93F707FCA4
:103E50002326F4FE832784FD2324F4FE0327C4FDD8
:103E600091476305F7040327C4FD914763E8E7061C
:103E70000327C4FD8D4763E3E7060327C4FD894795
:103E8000637BF7008327C4FDA1C70327C4FD8547D3
:103E90006309F702A1A0832784FE739077308327FC
:103EA000C4FE93E72700739057300DA8832784FE44
:103EB000739077308327C4FE93E7370073905730B1
:103EC00031A8832784FE93E717007390573039A0F9
:103ED000832784FEF19B7390573001000100325418
:103EE00045618280011122CE00102326A4FE032703
:103EF000C4FEFD4763C6E7020327C4FE8D4763493E
:103F0000F7028327C4FE05473317F700C577938769
:103F10008788F98FB337F00093F7F70F81EB09A883
:103F20000327C4FE930700086314F700854719A010
:103F3000010081473E85724405618280797106D611
:103F400022D40018232EA4FC232CB4FC232AC4FC66
:103F5000232604FE8327C4FD99E3FD5749A80327C0
:103F600084FDFD4763E0E708832784FD139727005E
:103F7000B717012093874789BA979C438287832785
:103F800044FD81C7EFE07FF38DA0EFE09FF4B1A87F
:103F9000832744FD81C7EFE05FF581A8EFE07FF65E
:103FA000A9A0832744FD81C7EFE03FF73DA8EFE0DC
:103FB0007FF825A8832744FD81C7EFE05FF935A08E
:103FC000EFE0BFFA1DA0832744FD99C7832784FD36
:103FD0003E85EFE05FFB11A8832784FD3E85EFE07F
:103FE0005FFD21A0FD572326F4FE8327C4FE3E85F6
:103FF000B250225445618280797122D60018232E56
:10400000A4FC232CB4FC232AC4FC8327C4FD232650
:10401000F4FE032784FDAD4763C2E702832744FD16
:1040200091CF0327C4FE832784FD9387870E8A07D9
:10403000BA97032744FD98C3814711A0FD573E85D9
:10404000325445618280797106D622D40018232E1D
:10405000A4FC8327C4FD2322F4FE832744FEDC4313
:10406000E1E3232604FEB9A0832644FE0327C4FE11
:10407000BA878607BA978E07B69723A807088326BC
:1040800044FE0327C4FEBA878607BA978E07B69701
:1040900023AA0708832644FE0327C4FEBA8786079F
:1040A000BA978E07B69723AC07088327C4FE850707
:1040B0002326F4FE0327C4FEFD47E3D7E7FA2324B3
:1040C00004FE1DA0032744FE832784FE9387870EEA
:1040D0008A07BA97373701201307E7FD98C383276C
:1040E00084FE85072324F4FE032784FEAD47E3DB2B
:1040F000E7FCF32750302320F4FEB7070120938715
:104100004713032704FE6319F700B737012093858F
:1041100007280145EFF0FFD1832744FE0547D8C3A8
:104120000100B250225445618280797106D622D4B2
:104130000018232EA4FC232CB4FC232AC4FC23281F
:10414000D4FC232604FE8327C4FD2324F4FE032588
:1041500084FD493BAA8799E3D55765A2032784FDCF
:10416000930700086318F700EFF03FC7AA8799C3C9
:10417000CD5741AA832744FDB9CF032784FD930778
:104180000008631FF700832784FE032744FD23A84C
:10419000E738832784FE032704FD23ACE73885A294
:1041A000832684FE032784FDBA878607BA978E0785
:1041B000B697032744FD23A8E708832684FE032738
:1041C00084FDBA878607BA978E07B697032704FD42
:1041D00023ACE7082DA2032784FD930700086301A1
:1041E000F70C032784FD9307000863C7E710032734
:1041F00084FDFD4763C2E710032784FDC147635078
:10420000F70C032784FDAD47630BF70A032784FDF2
:10421000AD4763C3E70E032784FD8D476308F700AE
:10422000032784FD9D476300F704F9A0832684FEDD
:10423000032784FDBA878607BA978E07B697373764
:1042400001201307E70C23A8E708832684FE032731
:1042500084FDBA878607BA978E07B697032704FDB1
:1042600023AAE70869A8832684FE032784FDBA876A
:104270008607BA978E07B697373701201307E71DD1
:1042800023A8E708832684FE032784FDBA878607D0
:10429000BA978E07B697032704FD23AAE70885A0DF
:1042A000832784FE373701201307871C23A8E738AC
:1042B000832784FE032704FD23ACE73889A08326E7
:1042C00084FE032784FDBA878607BA978E07B697C0
:1042D00037370120130767FF23A8E708832684FEEA
:1042E000032784FDBA878607BA978E07B6970327F8
:1042F00004FD23AAE70821A0D1572326F4FE832733
:10430000C4FE3E85B250225445618280011106CE22
:1043100022CC00102326A4FE2324B4FE832784FE8F
:104320000546BE850325C4FEEFF05FC1AA873E8522
:10433000F240624405618280011106CE22CC001059
:104340002326A4FE2324B4FE832784FE0146BE85D3
:104350000325C4FEEFF09FBEAA873E85F24062446B
:1043600005618280011106CE22CC00102326A4FE16
:10437000EFF0BFA6AA873E85F240624405618280C5
:10438000011106CE22CC00102326A4FE2324B4FE65
:10439000832784FE99EBB7370120938507280325EF
:1043A00084FEEFF01FA981470DA0032784FE8547F7
:1043B000631CF700B777012093850718032584FE57
:1043C000EFF03FA7814711A0FD573E85F2406244C0
:1043D00005618280011122CE00102326A4FE232431
:1043E000B4FE2322C4FE81473E857244056182806B
:1043F000397122DE80002326A4FC01458145232457
:10440000A4FE2326B4FEF32500B82322B4FEF32530
:1044100000B02320B4FEF32500B8232EB4FC0325FE
:1044200044FE8325C4FDE310B5FE832544FE2E889B
:104430008148931708000147832504FE2E86814694
:10444000B365C7002324B4FED58F2326F4FE0327CB
:1044500084FE8327C4FE3A85BE8572542161828022
:10446000797106D622D44AD24ED00018232EA4FC4D
:104470008327C4FD81E70149814921A80325C4FDA3
:10448000EFE09F972326A4FE8327C4FE3E89FD8785
:10449000BE894A87CE873A85BE85B25022541259CA
:1044A000825945618280797106D622D40018232E64
:1044B000A4FC814701482320F4FE232204FF0325A6
:1044C000C4FDEFE01F962326A4FE8327C4FE8DC7FC
:1044D0008327C4FE83A7C7132324F4FE832784FE07
:1044E00081CF832784FE9C43F847930704FE3E86D2
:1044F0008545032584FE0297032704FE832744FE97
:104500003A85BE85B250225445618280797106D6C3
:1045100022D426D20018232EA4FC2328B4FC232A5C
:10452000C4FCFD572326F4FE0325C4FDEFE07F8F76
:104530002324A4FE832784FE8DCF832784FE83A7B4
:10454000C7132322F4FE832744FE85C7832744FE36
:104550009C43A44B0325C4FDEFE0DF87AA87032615
:1045600004FD832644FDBE85032544FE8294232654
:10457000A4FE8327C4FE3E85B25022549254456166
:104580008280011122CE00102326A4FEB7170080DE
:10459000938787AB3E85724405618280011122CEEC
:1045A00000102326A4FE9D473E857244056182804B
:1045B000011122CE00102326A4FEB7170080938796
:1045C00087AB3E85724405618280011122CE0010C6
:1045D0002326A4FE8D473E85724405618280797151
:1045E00006D622D40018232EA4FC232CB4FCFD579D
:1045F0002326F4FE0325C4FDEFE0BF822324A4FE9E
:10460000832784FE9DC7832784FE83A7C70D2322AB
:10461000F4FE832744FE91CF832744FE9C43F84752
:10462000930784FD3E868D45032544FE029723268D
:10463000A4FE8327C4FE3E85B25022544561828089
:10464000797106D622D40018232EA4FC232CB4FCA6
:10465000FD572326F4FE0325C4FDEFE08FFC232441
:10466000A4FE832784FE9DC7832784FE83A7C70DEE
:104670002322F4FE832744FE91CF832744FE9C43EC
:10468000F847930784FD3E868945032544FE02973B
:104690002326A4FE8327C4FE3E85B25022544561E2
:1046A0008280797106D622D40018232EA4FC232CF4
:1046B000B4FC232604FE0325C4FDEFE08FF623247B
:1046C000A4FE832784FE9DC7832784FE83A7C70D8E
:1046D0002322F4FE832744FE91CF832744FE9C438C
:1046E000F847930784FD3E869145032544FE0297D3
:1046F0002326A4FE8327C4FE3E85B2502254456182
:104700008280011106CE22CC00102326A4FE0325B0
:10471000C4FEEFE00FF1AA873E85F24062440561D6
:104720008280797106D622D40018232EA4FC232C73
:10473000B4FC232AC4FC0325C4FDEFE08FEE23263E
:10474000A4FE8327C4FE99CB032644FD832584FD64
:104750000325C4FEEFF05F8AAA8711A0FD573E85AE
:10476000B250225445618280011122CE00102326CE
:10477000A4FE2324B4FE832784FE83D7070013F707
:1047800037008D476314F700914711A089473E8594
:10479000724405618280797122D60018232EA4FC10
:1047A000F32710342326F4FE8327C4FE3E853254BB
:1047B00045618280011122CE00102326A4FE23240D
:1047C000B4FE832784FE7390173481473E8572447C
:1047D00005618280011106CE22CC00102326A4FEA2
:1047E0000325C4FEEFE08FE6AA873E85F2406244CF
:1047F00005618280011122CE00102326A4FE03272A
:10480000C4FEB7070080938707476315F700B70713
:10481000000C11A081473E85724405618280011120
:1048200022CE00102326A4FE0327C4FEB707008073
:10483000938707476315F7009307500311A081473B
:104840003E85724405618280011122CE001023262C
:10485000A4FE0327C4FEB7070080938707476314AD
:10486000F7009D4711A081473E8572440561828013
:10487000011122CE00102326A4FE2324B4FE832798
:1048800084FE91E7B70700809387070A11A081474C
:104890003E85724405618280011122CE00102326DC
:1048A000A4FE2324B4FE832784FE99E3AD4711A020
:1048B00081473E85724405618280011122CE00103D
:1048C0002326A4FE8327C4FE99E3814711A0FD5748
:1048D0003E85724405618280797106D622D4001823
:1048E000232EA4FC232CB4FC0325C4FD213723264E
:1048F000A4FE832784FD1397C7008327C4FE3E9739
:10490000B70720009107BA979C433E85B2502254C6
:1049100045618280797106D622D40018232EA4FC2A
:10492000232CB4FC232AC4FC0325C4FDE135232633
:10493000A4FE832784FD1397C7008327C4FE3E97F8
:10494000B70720009107BA973E87832744FD1CC311
:104950000100B250225445618280797106D622D47A
:104960000018232EA4FC232CB4FC232AC4FC03250A
:10497000C4FD49352326A4FE832784FD1397C70071
:104980008327C4FE3E97B7072000BA973E87832748
:1049900044FD1CC381473E85B2502254456182804C
:1049A000797106D622D40018232EA4FC232CB4FC43
:1049B0000325C4FD81352326A4FE832784FD139798
:1049C000C7008327C4FE3E97B7072000BA979C43D1
:1049D0003E85B250225445618280797106D622D438
:1049E0000018232EA4FC232CB4FC232AC4FC03258A
:1049F000C4FD09352326A4FE0325C4FDB135AA87CD
:104A00002324F4FE832784FE85C7032744FD8327E0
:104A100084FE637FF700832784FD8A073E87832710
:104A2000C4FEBA973E87832744FD1CC3814711A06B
:104A3000FD573E85B250225445618280797106D679
:104A400022D40018232EA4FC232CB4FC0325C4FD7F
:104A500055332326A4FE832784FD8A073E878327B8
:104A6000C4FEBA979C433E85B25022544561828071
:104A7000797106D622D40018232EA4FC232CB4FC72
:104A8000232AC4FC2328D4FC0325C4FDEFF09FD6C1
:104A90002326A4FE832784FD139777008327C4FE73
:104AA000BA97032744FD15870A073E978967BA9787
:104AB0009C432324F4FE832704FD81CF832744FDF8
:104AC000FD8B0547B317F7003E87832784FED98FF8
:104AD00029A8832744FDFD8B0547B317F70093C72B
:104AE000F7FF3E87832784FEF98F032784FD931603
:104AF00077000327C4FE3697832644FD95868A06F1
:104B0000BA96096736971CC381473E85B250225436
:104B100045618280011106CE22CC00102326A4FE1E
:104B20002324B4FE1305C012EF200055797106D678
:104B300022D40018232EA4FC232CB4FC832784FD4C
:104B40002326F4FEEFE0CFB5AA873E85EFF0FFD62F
:104B50002324A4FE832584FE0325C4FEEFF0DFD7C3
:104B60002322A4FE0325C4FEEFF07FCBAA872320D7
:104B7000F4FE032744FE832704FE6372F704032731
:104B8000C4FE832744FE8A07BA979C478DCB032730
:104B9000C4FE832744FE8A07BA9703A8870003262A
:104BA00044FE8326C4FE032744FEBA878607BA97CD
:104BB0008E07B69783A7070FBE8532850298032616
:104BC00044FE832584FE0325C4FEEFF0BFD401001C
:104BD000B250225445618280397106DE22DC8000A9
:104BE0002326A4FC8327C4FC2322F4FE832744FE4F
:104BF000DC43639B0712232604FE39AA0325C4FC69
:104C0000EFF0FFC12320A4FE8325C4FE0325C4FCCE
:104C1000EFF01FC6232EA4FC8325C4FE0325C4FC8D
:104C2000EFF09FC7232CA4FC8327C4FD9C439C4327
:104C30000325C4FD8297232404FE8DA88146032604
:104C400084FE8325C4FE032544FE1D35032784FE10
:104C5000832704FE6357F7040146832584FE03255A
:104C6000C4FCEFF09FD7032744FE832784FE8A0706
:104C7000BA9723A40700832644FE032784FEBA873D
:104C80008607BA978E07B69723A6070E832644FE9B
:104C9000032784FEBA878607BA978E07B69723A89C
:104CA000070E832784FE85072324F4FE032784FE52
:104CB0009307F03FE3D4E7F801468325C4FE0325BC
:104CC000C4FCEFF09FC98327C4FD9C43DC4F8326BF
:104CD00044FE0146832584FD0325C4FD8297832776
:104CE000C4FD9C43D84F832644FEB757012013864A
:104CF000C7B2832584FD0325C4FD02978327C4FD25
:104D00009C43DC53832584FD0325C4FD82978327C0
:104D1000C4FE85072326F4FE8327C4FEE350F0EE8D
:104D2000832744FE0547D8C30100F2506254216135
:104D30008280797106D622D40018232EA4FC232C5D
:104D4000B4FC232AC4FC2328D4FC8327C4FD2326D7
:104D5000F4FE0325C4FDEFF09FAC2A87832784FD72
:104D600063C4E700FD5751A0832744FD9DCF09464A
:104D7000832584FD0325C4FDEFF03FC60327C4FE51
:104D8000832784FD8A07BA97032744FD98C78326A3
:104D9000C4FE032784FDBA878607BA978E07B697A5
:104DA000032704FD23A8E70E81A00546832584FD83
:104DB0000325C4FDEFF07FC20327C4FE832784FDD3
:104DC0008A07BA9737570120130747B198C7832638
:104DD000C4FE032784FDBA878607BA978E07B69765
:104DE000032704FD23A6E70E81473E85B2502254D7
:104DF00045618280797106D622D40018232EA4FC46
:104E0000232CB4FC8327C4FD2326F4FE0325C4FD14
:104E1000EFF0FFA02A87832784FD63C4E700FD57D6
:104E200029A8EFE0EF87AA878546032684FDBE8583
:104E30000325C4FEEFF0DFC381473E85B250225404
:104E400045618280797106D622D40018232EA4FCF5
:104E5000232CB4FC8327C4FD2326F4FE0325C4FDC4
:104E6000EFF0FF9B2A87832784FD63C4E700FD578B
:104E700029A8EFE0EF82AA878146032684FDBE853C
:104E80000325C4FEEFF0DFBE81473E85B2502254B9
:104E900045618280011106CE22CC00102326A4FE9B
:104EA0002324B4FEEFD0DFFFAA87032684FEBE854D
:104EB0000325C4FEEFF07FAAAA873E85F240624434
:104EC00005618280011106CE22CC00102326A4FEAB
:104ED000EFD01FFDAA87BE850325C4FEEFF05FACAF
:104EE000AA873E85F240624405618280797106D6C8
:104EF00022D40018232EA4FC232CB4FC232AC4FCA7
:104F0000232204FE8327C4FD2324F4FE0325C4FDCD
:104F1000EFF0FF902A87832744FD63C8E700FD5721
:104F20002322F4FE832744FE99A8232604FE99A099
:104F30008327C4FE95C78546032644FD8325C4FE0A
:104F4000032584FEEFF0DFB2AA8713F7170083274B
:104F5000C4FE3317F700832744FED98F2322F4FEC3
:104F60008327C4FE85072326F4FE832784FD8583DB
:104F7000232CF4FC832784FDC5FF832744FE3E8554
:104F8000B250225445618280797106D622D400182D
:104F9000232EA4FC232CB4FC232AC4FC232204FECD
:104FA0008327C4FD2324F4FE0325C4FDEFF03F87CF
:104FB0002A87832744FD63C8E700FD572322F4FEB8
:104FC000832744FE99A8232604FE99A08327C4FEC4
:104FD00095C78146032644FD8325C4FE032584FE30
:104FE000EFF01FA9AA8713F717008327C4FE331712
:104FF000F700832744FED98F2322F4FE8327C4FEC3
:1050000085072326F4FE832784FD8583232CF4FC67
:10501000832784FDC5FF832744FE3E85B25022547A
:1050200045618280797106D622D40018232EA4FC13
:10503000232CB4FC232AC4FC232404FE232604FED0
:1050400091A08327C4FE8DC7032644FD8325C4FE9B
:105050000325C4FDEFF07F90AA8713F7170083277D
:10506000C4FE3317F700832784FED98F2324F4FE70
:105070008327C4FE85072326F4FE832784FD8583CA
:10508000232CF4FC832784FDCDFF832784FE3E85FB
:10509000B250225445618280011106CE22CC00100C
:1050A0002326A4FE2324B4FE832584FE0325C4FE08
:1050B000EFF01F8F81473E85F24062440561828098
:1050C000011122CE00102326A4FEB707008093878B
:1050D00087073E85724405618280011122CE00104F
:1050E0002326A4FE938781823E85724405618280D7
:1050F000011122CE00102326A4FE81473E85724472
:1051000005618280411122C60008B71701209387EC
:10511000473C3E85324441018280397106DE22DC03
:1051200080002326A4FC0325C4FC593F2326A4FEAB
:105130000325C4FC753F2324A4FE0325C4FC713F52
:105140002322A4FEC1372320A4FE832704FE9C4310
:10515000832584FE032544FE8297232EA4FC032787
:10516000C4FDB7070040F98F99E3FD5725A08327B9
:10517000C4FD63C40700FD5731A80325C4FEEF102A
:10518000D04FAA873E878327C4FD93F7F70385078F
:10519000B357F7023E85F2506254216182800111BB
:1051A00006CE22CC00102326A4FE2324B4FE032521
:1051B000C4FEA537AA873E85F2406244056182801D
:1051C000011122CE00102326A4FEB707008093878A
:1051D000C7063E85724405618280011122CE00100F
:1051E0002326A4FE938781823E85724405618280D6
:1051F000011122CE00102326A4FE91473E85724461
:1052000005618280411122C60008B71701209387EB
:10521000473C3E85324441018280397106DE22DC02
:1052200080002326A4FC0325C4FC593F2326A4FEAA
:105230000325C4FC753F2324A4FE0325C4FC713F51
:105240002322A4FEC1372320A4FE832704FE9C430F
:10525000832584FE032544FE8297232EA4FC032786
:10526000C4FDB7070040F98F99E3FD5721A88327B4
:10527000C4FD63C40700FD5731A00325C4FEEF1031
:10528000D03FAA873E85F25062542161828001118D
:1052900006CE22CC00102326A4FE2324B4FE032530
:1052A000C4FEA53FAA873E85F24062440561828024
:1052B000011122CE00102326A4FEB7170080938789
:1052C00087A83E85724405618280011122CE0010BC
:1052D0002326A4FEB7170080938747A93E85724412
:1052E00005618280011122CE00102326A4FE93873F
:1052F00081823E85724405618280011122CE0010B8
:105300002326A4FEB1473E85724405618280411187
:1053100022C60008938781823E8532444101828003
:10532000411122C60008A1473E85324441018280D6
:10533000411122C60008B727F400938707403E8535
:10534000324441018280411122C60008B787001013
:105350003E85324441018280411122C60008B717C0
:1053600001209387473C3E853244410182800111F0
:1053700022CE00102326A4FE2324B4FE832784FE1D
:105380009C470327C4FE6369F700832784FEDC473C
:105390000327C4FE63F4E700FD5729A8832784FE92
:1053A00098438327C4FE3307F702832784FEDC4338
:1053B000B357F7023E85724405618280397106DE7B
:1053C00022DC80002326A4FC8327C4FC3E85F53D17
:1053D0002326A4FEB13F2324A4FE99372322A4FE52
:1053E0009D372320A4FE032704FE832744FEBA979B
:1053F000232EF4FC8327C4FCDC433E85EF10901E73
:105400008327C4FD9843C167F98F91CB8327C4FDDF
:105410009843C177FD177D8F8327C4FD98C38327E9
:10542000C4FE91CB8327C4FD9843B70702005D8F6C
:105430008327C4FD98C38327C4FC9C43D843832798
:10544000C4FC832584FE3E8502978327C4FC9C47C9
:105450003E85EF1030190100F250625421618280C4
:105460001D7186CEA2CC80102326A4FA0325C4FA8F
:10547000EFF0BFE52326A4FE0325C4FAEFF05FE3B7
:105480002324A4FE0325C4FAEFF09FE92322A4FEFF
:105490000325C4FAEFF0BFE72320A4FE0325C4FAD6
:1054A000EFF0BFE5232EA4FC0325C4FAEFF09FE341
:1054B000232CA4FC5535232AA4FC832744FD9C43BC
:1054C000832544FE032504FE82972328A4FC83271A
:1054D00044FD9C438325C4FD032584FD8297232638
:1054E000A4FC032704FDC1677D8FC1676378F700C3
:1054F000032584FEEF107018AA87E1A8032704FD96
:10550000B70702007D8FB70702006365F7008327A6
:10551000C4FE19A0832784FE3E85EF1010162324B5
:10552000A4FC032704FDB70704007D8FB707040020
:105530006365F700832784FC69A8832704FD9D8B9E
:1055400085072322F4FC832704FD93F7073F91830B
:10555000850786072320F4FC032704FD85679387CE
:1055600007C07D8F9307F03F63E4E700FD5795A0E8
:10557000032704FD8567938707C0F98FA983054733
:10558000B317F700232EF4FA032784FC832744FC87
:105590003347F702832704FC3307F7028327C4FB52
:1055A000B347F702232CF4FA8327C4FC13F7071040
:1055B0009307F00F63F5E700832784FB19A80327FF
:1055C00084FB8327C4FC93F7F70385078607B3574B
:1055D000F7023E85F640664425618280397106DE19
:1055E00022DC80002326A4FC2324B4FCFD572326C0
:1055F000F4FEB707008093C7F7FF2324F4FE930758
:1056000030042322F4FEB5A08326C4FC832744FE85
:1056100013975700B7170120938707A2BA97BE8543
:105620003685EFF0DFD42320A4FE032704FEFD57C8
:10563000630CF702032704FE832784FC1D8F935716
:10564000F7413D8FB307F740232EF4FC0327C4FD39
:10565000832784FE635AF700832744FE2326F4FE43
:105660008327C4FD2324F4FE832744FEFD17232251
:10567000F4FE832744FEE3D907F88327C4FE3E8562
:10568000F250625421618280797106D622D40018CA
:10569000232EA4FC232CB4FC232AC4FC8327C4FDA2
:1056A0009C4313F787FF8327C4FD98C38327C4FD5A
:1056B0009843832744FD9C4B9D8B5D8F8327C4FDBE
:1056C00098C38327C4FD9C4313F7F7C08327C4FD09
:1056D00098C38327C4FD9843832744FDDC4B92077E
:1056E00093F7073F5D8F8327C4FD98C38327C4FDCD
:1056F0009843FD779387F73F7D8F8327C4FD98C339
:105700008327C4FD9843832744FD9C4F9396A700AD
:105710008567938707C0F58F5D8F8327C4FD98C386
:10572000832744FDDC4F63DB0702832784FD9C4312
:1057300013E70710832784FD98C3832784FD9C43C8
:1057400013F707FC832784FD98C3832784FD9C43BC
:1057500013E71700832784FD98C32DA8832784FDB2
:105760009C4313F7F7EF832784FD98C3832784FDB9
:105770009C4313F707FC832784FD98C3832784FD8C
:105780009843832744FDDC4F93F7F7035D8F83270E
:1057900084FD98C38327C4FD9843B707FCFFFD171A
:1057A0007D8F8327C4FD98C3930704FE3E868545FD
:1057B000B7170080138587ABEFD04FC7032604FED1
:1057C000832644FE114581453307A6003A883338C5
:1057D000C800B387B600B306F800B6872324E4FEFA
:1057E0002326F4FE19A8930704FE3E868545B717C5
:1057F0000080138587ABEFD06FC3032704FE832798
:1058000044FE8326C4FE3E8663ECC6008326C4FEA7
:105810003E86E39AC6FC832684FEBA87E3F5F6FC4F
:1058200001008327C4FD9C43E3DD07FE0100010066
:10583000B2502254456182805D7186C6A2C4800840
:10584000232EA4FA232CB4FA0325C4FBEFF0FFA700
:105850002326A4FE0325C4FBEFF09FA52324A4FE6A
:105860000325C4FBEFF0DFAB2322A4FE0325C4FB1A
:10587000EFF0BFA82320A4FEEFF0FFAC232EA4FC82
:105880000327C4FD832744FEBA97232CF4FC032787
:10589000C4FD832704FEBA97232AF4FC832784FDE2
:1058A0009843C167F98F91CB832784FD9843C177D3
:1058B000FD177D8F832784FD98C3832784FD98433C
:1058C000B7070200F98F81C78327C4FE19A0832779
:1058D00084FE3E85EF10605A2328A4FC032704FDB4
:1058E000BA878607BA9713D7F7410D8BBA9789877E
:1058F0003E87832784FB63CBE702032704FDBA8737
:105900008A07BA9713D7F7410D8BBA9789873E87D5
:10591000832784FB634CF700832784FD9843B707F4
:1059200004005D8F832784FD98C381A8832584FBB1
:10593000032504FDEFF09FCA2326A4FC0327C4FC23
:10594000FD576303F7028327C4FC13975700B7176B
:105950000120938707A2BA973E86832544FD03253D
:1059600084FDEFF07FD211A8832784FD9843B70709
:1059700004005D8F832784FD98C3832784FD9843AB
:10598000C1675D8F832784FD98C30325C4FBEFF0B7
:105990003FADAA873E85B6402644616182804111B1
:1059A00022C60008B78700103E853244410182803C
:1059B000797106D622D40018232EA4FC232CB4FC23
:1059C000F93FAA872326F4FE032784FD8327C4FE1C
:1059D000BA979C433E85B2502254456182807971CA
:1059E00006D622D40018232EA4FC232CB4FC232A90
:1059F000C4FC7537AA872326F4FE032784FD83277A
:105A0000C4FEBA973E87832744FD1CC33E85B2502F
:105A1000225445618280011122CE00102326A4FE6B
:105A20000327C4FE9387C1816315F70093878181A3
:105A300025A00327C4FE938701826315F70093878F
:105A4000818119A80327C4FE938741826315F7005B
:105A50009387818111A081473E85724405618280D0
:105A6000011122CE00102326A4FE0327C4FE938733
:105A7000C1816314F700D94715A00327C4FE93879B
:105A800001826314F700CD4711A80327C4FE938752
:105A900041826314F700D54711A081473E857244C7
:105AA00005618280011122CE00102326A4FE032767
:105AB000C4FE9387C1816317F700B717012093874E
:105AC000C72A1DA80327C4FE938701826317F70026
:105AD000B71701209387472B05A00327C4FE9387A0
:105AE00041826317F700B71701209387072C29A07D
:105AF000B71701209387872C3E8572440561828009
:105B0000011106CE22CC00102326A4FE2324B4FECD
